{
  "contractName": "Comfortable",
  "abi": [
    {
      "anonymous": false,
      "inputs": [
        {
          "indexed": false,
          "internalType": "string",
          "name": "",
          "type": "string"
        }
      ],
      "name": "show",
      "type": "event"
    },
    {
      "inputs": [],
      "name": "name",
      "outputs": [
        {
          "internalType": "string",
          "name": "",
          "type": "string"
        }
      ],
      "stateMutability": "view",
      "type": "function",
      "constant": true
    },
    {
      "inputs": [],
      "name": "Showname",
      "outputs": [
        {
          "internalType": "string",
          "name": "",
          "type": "string"
        }
      ],
      "stateMutability": "view",
      "type": "function",
      "constant": true
    },
    {
      "inputs": [],
      "name": "view1",
      "outputs": [
        {
          "internalType": "string",
          "name": "",
          "type": "string"
        }
      ],
      "stateMutability": "pure",
      "type": "function",
      "constant": true
    },
    {
      "inputs": [],
      "name": "selfpay",
      "outputs": [],
      "stateMutability": "payable",
      "type": "function",
      "payable": true
    },
    {
      "inputs": [],
      "name": "balance",
      "outputs": [
        {
          "internalType": "uint256",
          "name": "",
          "type": "uint256"
        }
      ],
      "stateMutability": "view",
      "type": "function",
      "constant": true
    },
    {
      "inputs": [
        {
          "internalType": "address",
          "name": "_recever",
          "type": "address"
        }
      ],
      "name": "send",
      "outputs": [],
      "stateMutability": "payable",
      "type": "function",
      "payable": true
    },
    {
      "inputs": [],
      "name": "sevent",
      "outputs": [],
      "stateMutability": "nonpayable",
      "type": "function"
    }
  ],
  "bytecode": "0x60806040526040518060400160405280600381526020017f416c6900000000000000000000000000000000000000000000000000000000008152506000908051906020019061004f929190610062565b5034801561005c57600080fd5b50610166565b82805461006e90610105565b90600052602060002090601f01602090048101928261009057600085556100d7565b82601f106100a957805160ff19168380011785556100d7565b828001600101855582156100d7579182015b828111156100d65782518255916020019190600101906100bb565b5b5090506100e491906100e8565b5090565b5b808211156101015760008160009055506001016100e9565b5090565b6000600282049050600182168061011d57607f821691505b6020821081141561013157610130610137565b5b50919050565b7f4e487b7100000000000000000000000000000000000000000000000000000000600052602260045260246000fd5b6105b3806101756000396000f3fe6080604052600436106100705760003560e01c80633e58c58c1161004e5780633e58c58c146100c15780639134ff28146100dd578063b69ef8a814610108578063d67f8a181461013357610070565b806306fdde031461007557806334636047146100a057806337fd42bf146100b7575b600080fd5b34801561008157600080fd5b5061008a61015e565b604051610097919061040c565b60405180910390f35b3480156100ac57600080fd5b506100b56101ec565b005b6100bf610223565b005b6100db60048036038101906100d6919061035b565b610225565b005b3480156100e957600080fd5b506100f261026f565b6040516100ff919061040c565b60405180910390f35b34801561011457600080fd5b5061011d610301565b60405161012a919061044e565b60405180910390f35b34801561013f57600080fd5b50610148610309565b604051610155919061040c565b60405180910390f35b6000805461016b906104f4565b80601f0160208091040260200160405190810160405280929190818152602001828054610197906104f4565b80156101e45780601f106101b9576101008083540402835291602001916101e4565b820191906000526020600020905b8154815290600101906020018083116101c757829003601f168201915b505050505081565b7fbe025cd0737d1912c421eb1ace55f3a811fccb8c5a479c1d21f0882dc11c607f6040516102199061042e565b60405180910390a1565b565b8073ffffffffffffffffffffffffffffffffffffffff166108fc349081150290604051600060405180830381858888f1935050505015801561026b573d6000803e3d6000fd5b5050565b60606000805461027e906104f4565b80601f01602080910402602001604051908101604052809291908181526020018280546102aa906104f4565b80156102f75780601f106102cc576101008083540402835291602001916102f7565b820191906000526020600020905b8154815290600101906020018083116102da57829003601f168201915b5050505050905090565b600047905090565b60606040518060400160405280600f81526020017f68656c6c6f20746f206d7973656c660000000000000000000000000000000000815250905090565b60008135905061035581610566565b92915050565b60006020828403121561036d57600080fd5b600061037b84828501610346565b91505092915050565b600061038f82610469565b6103998185610474565b93506103a98185602086016104c1565b6103b281610555565b840191505092915050565b60006103ca601283610474565b91507f546865206576656e742069732073686f776e00000000000000000000000000006000830152602082019050919050565b610406816104b7565b82525050565b600060208201905081810360008301526104268184610384565b905092915050565b60006020820190508181036000830152610447816103bd565b9050919050565b600060208201905061046360008301846103fd565b92915050565b600081519050919050565b600082825260208201905092915050565b600061049082610497565b9050919050565b600073ffffffffffffffffffffffffffffffffffffffff82169050919050565b6000819050919050565b60005b838110156104df5780820151818401526020810190506104c4565b838111156104ee576000848401525b50505050565b6000600282049050600182168061050c57607f821691505b602082108114156105205761051f610526565b5b50919050565b7f4e487b7100000000000000000000000000000000000000000000000000000000600052602260045260246000fd5b6000601f19601f8301169050919050565b61056f81610485565b811461057a57600080fd5b5056fea2646970667358221220d6ae63f64a3c6977c3cfc84ec07cdb38855826fcfbf716c33463b798fb609aa664736f6c63430008000033",
  "immutableReferences": {},
  "source": " pragma solidity ^0.8.0;\r\n\r\n contract Comfortable{\r\n     string public name=\"Ali\";\r\n     event show(string);\r\n     function Showname() public view returns(string memory){\r\n         return name;\r\n     }\r\n     function view1() public pure returns(string memory){\r\n         return \"hello to myself\";\r\n     }\r\n     function selfpay() public payable{\r\n\r\n     }\r\n     function balance() public view returns(uint){\r\n         return(address(this).balance);\r\n     }\r\n     function send(address _recever) public payable{\r\n         payable(_recever).transfer(msg.value);\r\n\r\n     }\r\n     function sevent() public{\r\n         emit show(\"The event is shown\");\r\n     }\r\n  \r\n\r\n }",
  "sourcePath": "D:\\NOTES\\Election_Dapp\\contracts\\Comfortable.sol",
  "compiler": {
    "name": "solc",
    "version": "0.8.0+commit.c7dfd78e.Emscripten.clang"
  },
  "schemaVersion": "3.4.3",
  "updatedAt": "2021-09-20T07:04:21.486Z",
  "networkType": "ethereum",
  "devdoc": {
    "kind": "dev",
    "methods": {},
    "version": 1
  },
  "userdoc": {
    "kind": "user",
    "methods": {},
    "version": 1
  }
}