{
  "contractName": "Comfortable",
  "abi": [
    {
      "inputs": [],
      "name": "get",
      "outputs": [
        {
          "internalType": "uint256",
          "name": "",
          "type": "uint256"
        }
      ],
      "stateMutability": "view",
      "type": "function",
      "constant": true
    }
  ],
  "bytecode": "0x6080604052602260005534801561001557600080fd5b5060b6806100246000396000f3fe6080604052348015600f57600080fd5b506004361060285760003560e01c80636d4ce63c14602d575b600080fd5b60336047565b604051603e9190605d565b60405180910390f35b60008054905090565b6057816076565b82525050565b6000602082019050607060008301846050565b92915050565b600081905091905056fea2646970667358221220c4c722c90a2ab09ae2691a79f9104c9bcfeda725e80ddc2b5a314dacffbdcca564736f6c63430008000033",
  "immutableReferences": {},
  "source": " pragma solidity ^0.8.0;\r\n\r\n contract Comfortable{\r\n    //  string public name=\"Ali\";\r\n    //  event show(string);\r\n    //  function Showname() public view returns(string memory){\r\n    //      return name;\r\n    //  }\r\n    //  function view1() public pure returns(string memory){\r\n    //      return \"hello to myself\";\r\n    //  }\r\n    //  function selfpay() public payable{\r\n\r\n    //  }\r\n    //  function balance() public view returns(uint){\r\n    //      return(address(this).balance);\r\n    //  }\r\n    //  function send(address _recever) public payable{\r\n    //      payable(_recever).transfer(msg.value);\r\n\r\n    //  }\r\n    //  function sevent() public{\r\n    //      emit show(\"The event is shown\");\r\n    //  }\r\n  uint storedData=34;\r\n\r\n//   function set(uint x) public {\r\n//     storedData = x;\r\n//   }\r\n\r\n  function get() public view returns (uint) {\r\n    return storedData;\r\n  }\r\n\r\n }",
  "sourcePath": "D:\\NOTES\\Election_Dapp\\contracts\\Comfortable.sol",
  "compiler": {
    "name": "solc",
    "version": "0.8.0+commit.c7dfd78e.Emscripten.clang"
  },
  "schemaVersion": "3.4.3",
  "updatedAt": "2021-08-21T02:34:07.872Z",
  "networkType": "ethereum",
  "devdoc": {
    "kind": "dev",
    "methods": {},
    "version": 1
  },
  "userdoc": {
    "kind": "user",
    "methods": {},
    "version": 1
  }
}